:020000040000FA
:06000000BDEF08F0120044
:020006001200E6
:060008003FEF03F01200BF
:02000E000100EF
:0C001000B6110000000100009800000084
:04001C00D9CFE6FF53
:10002000E1CFD9FF020EE1260101A40EA26F0B0E53
:10003000A36F000EA46F720ED36EC26A0D0EC16E56
:10004000C06AC30E926E010E936EC50E946E8968DF
:100050008A68FD0E8B6E0D0EE66E040EE66ED90EEE
:10006000E66E92EC07F0E552E552E552870EE66E39
:1000700080EC08F0E552D9EC08F0D4EC08F0000967
:1000800001E0FBD7CBEC08F0F3CF14F0F4CF15F080
:10009000560E0D6E010E0E6E14C008F015C009F05C
:1000A000ECEC05F008C014F009C015F014C06CF1B8
:1000B0008F0EE66E80EC08F0E552D9EC08F0D4EC37
:1000C00008F0000901E0FBD7CBEC08F0F3CF14F007
:1000D000F4CF15F0560E0D6E010E0E6E14C008F022
:1000E00015C009F0ECEC05F008C014F009C015F0DB
:1000F000030E1502F3CF15F01402F3CF14F0F450F1
:100100001526145001016C27650EE66E10EC08F000
:10011000E552000EE66EE66A31EC08F0E552E55273
:10012000B196850EE66E68EC08F0E552BC0EE66E00
:100130004DEC08F0E552CC6AF288F18CD09E9F8499
:100140009D849D82F28CF28E8250400B02E0000E64
:1001500001D0030E01016E6F8F5149E1440ED8802A
:100160009655000E975526E3E66A96C1E6FF97C1BD
:10017000E6FF49EC07F0E552E552E5520101A56FB3
:10018000010EE66E96C1E6FF97C1E6FF49EC07F067
:10019000E552E552E5520101A66F020EE66E96C1E8
:1001A000E6FF97C1E6FF49EC07F0E552E552E5525C
:1001B0000101A76F0101500E965D000E975916E3DD
:1001C000010E8F6F80AE08D001014C0EA26F090E98
:1001D000A36F000EA46F07D001017C0EA26F0A0E60
:1001E000A36F000EA46F0101020E776F3DD288C18C
:1001F0008AF189C18BF18A518B1144E08AC118F0D0
:100200008BC119F01A6A1B6A6CC1E9FFEA6AE9BE80
:10021000EA680C0EEA02F3CFEAFFE902F3CFE9FF46
:10022000F450EA26000EE926010EEA22060EE9261F
:10023000000EEA22EECF14F0EFCF15F0166A176A1F
:10024000060ED8901436153616361736E806F9E13C
:1002500014C006F015C007F016C008F017C009F06A
:1002600018C00BF019C00CF01AC00DF01BC00EF036
:1002700012EC06F006C082F107C083F108C084F1D9
:1002800009C085F180C118F081C119F01A6A1B6A92
:100290006CC1E9FFEA6AE9BEEA680C0EEA02F3CF34
:1002A000EAFFE902F3CFE9FFF450EA26000EE9265F
:1002B000010EEA22EECF14F0EECF15F0EECF16F0DD
:1002C000EFCF17F0060ED8901436153616361736BF
:1002D000E806F9E114C006F015C007F016C008F0F2
:1002E00017C009F018C00BF019C00CF01AC00DF0BF
:1002F0001BC00EF012EC06F006C07CF107C07DF1C9
:1003000008C07EF109C07FF101018E0531E16CC1A9
:10031000E9FFEA6AE9BEEA680C0EEA02F3CFEAFFF7
:10032000E902F3CFE9FFF450EA26000EE926010EB8
:10033000EA22040EE926000EEA22EECF14F0EFCFF7
:1003400015F0166A176A15AE02D01668176885513F
:100350001718E8AE02D0173408D01450825D15503B
:100360008359165084591750855902E28E6B33D049
:100370008E5131E16CC1E9FFEA6AE9BEEA680C0E10
:10038000EA02F3CFEAFFE902F3CFE9FFF450EA26ED
:10039000000EE926010EEA22080EE926000EEA22E6
:1003A000EECF14F0EFCF15F0166A176A15AE02D033
:1003B0001668176817508519E8AE02D0853508D041
:1003C0008251145C83511558845116588551175821
:1003D00002E2010E8E6F8E514FE1925193110AE0AD
:1003E00082C171F183C172F184C173F185C174F16D
:1003F000926B936B710EE96E010EEA6EEE50825DA8
:10040000146EEE508359156EEE508459166EEE50F0
:100410008559176ED8901750000A08E6000E145C34
:10042000050E1558000E1658000E175824E2710ECE
:10043000E96E010EEA6EEE50825D066EEE50835953
:10044000076EEE508459086EEE508559096E400EC5
:100450000B6E0C6A0D6A0E6A12EC06F00101715106
:100460000624716F72510720726F73510820736FE9
:1004700074510920746F55D08E054FE1925193113C
:100480000AE07CC171F17DC172F17EC173F17FC15F
:1004900074F1926B936B710EE96E010EEA6EEE5081
:1004A0007C5D146EEE507D59156EEE507E59166EC1
:1004B000EE507F59176ED8901750000A08E6000ECC
:1004C000145C050E1558000E1658000E175824E23D
:1004D000710EE96E010EEA6EEE507C5D066EEE5016
:1004E0007D59076EEE507E59086EEE507F59096EA9
:1004F000400E0B6E0C6A0D6A0E6A12EC06F00101DA
:1005000071510624716F72510720726F7351082068
:10051000736F74510920746F04D0716B726B736BBD
:10052000746B71C106F072C107F073C108F074C139
:1005300009F0400E0B6E0C6A0D6A0E6A12EC06F0A2
:1005400006C06FF107C070F101018D517019E8AE5E
:1005500002D0703504D06F518C5D70518D590FE20F
:100560006FC18CF170C18DF13C0E8DAF02D0D8906F
:1005700003D08C5D000E8D5902E3020E776F82BEB0
:1005800004D08CC16FF18DC170F16FC114F070C1D6
:1005900015F00A0E0D6E0E6A14C008F015C009F0B1
:1005A000ECEC05F004C014F005C015F014C0A5F182
:1005B0000A0E010170AF02D0D89003D06F5D000E1B
:1005C000705921E36FC114F070C115F0640E0D6E07
:1005D0000E6A14C008F015C009F0ECEC05F004C078
:1005E00014F005C015F00A0E0D6E0E6A14C008F066
:1005F00015C009F0ECEC05F008C014F009C015F0C6
:1006000014C0A6F103D001010A0EA66F640E010109
:1006100070AF02D0D89003D06F5D000E705921E307
:100620006FC114F070C115F0640E0D6E0E6A14C027
:1006300008F015C009F0ECEC05F008C014F009C092
:1006400015F00A0E0D6E0E6A14C008F015C009F000
:10065000ECEC05F004C014F005C015F014C0A7F1CF
:1006600003D001010A0EA76F6FD5020EE15C02E212
:10067000E16AE552E16EE552E7CFD9FF1200DACF29
:10068000E4FFE2CFDAFFE9CFE4FFEACFE4FFF6CF01
:10069000E4FFF7CFE4FFF8CFE4FFF5CFE4FFF3CFBB
:1006A000E4FFF4CFE4FFFACFE4FFFBCFE4FF00EE7A
:1006B00000F0140EE80403E3EECFE4FFFBD700EEF6
:1006C00014F00C0EE80403E3EECFE4FFFBD7E65290
:1006D0009EA41CD09E9478C17AF179C17BF1EDEC97
:1006E00007F0F3CF78F1F4CF79F101017A51785D19
:1006F000806F7B517959816F9007000E915B90510B
:10070000911104E18B76010E906F916BF2A226D0CD
:10071000F29286C188F187C189F10101866B876BEE
:10072000020E8E5D1BE16CC1E9FFEA6AE9BEEA6870
:100730000C0EEA02F3CFEAFFE902F3CFE9FFF4502F
:10074000EA26000EE926010EEA220A0EE926000E2C
:10075000EA22EECF88F1EDCF89F18E6B9EB09E90AC
:100760009EA2CCD09E920101862B000E87236CC1E5
:10077000E9FFEA6AE9BEEA680C0EEA02F3CFEAFF93
:10078000E902F3CFE9FFF450EA26000EE926010E54
:10079000EA220A0EE926000EEA22EECF20F0EFCF81
:1007A00021F02050865D2150875908E3866B876BC6
:1007B000826B836B846B856B020E8E6F942B000EA5
:1007C0009523320ED8809455000E955505E2962B50
:1007D000000E9723946B956B000EE76E7719E8AEC9
:1007E00002D0773503D0E750D880775518E2752BC3
:1007F000000E7623763504E275517808000E7655A2
:1008000004E2756B766B77070AD0763504E2755192
:100810003C08000E765502E28B9201D08B826D2B44
:100820006D0512E180AE02D08A9201D08B9AA5C1EB
:10083000E6FF07D0A4C1FBFFA3C1FAFF0101A2514B
:10084000F96EF8DFE5525AD0050ED8806E556D5D11
:100850000AE180AE02D08A8201D08B8A0A0EE66E4F
:1008600075D8E5524BD0060E6D5D0EE18B98A6C192
:10087000E6FF07D0A4C1FBFFA3C1FAFF0101A2510B
:10088000F96EF8DFE5523AD00A0ED8806E556D5DEC
:1008900006E18B880A0EE66E59D8E5522FD00B0E72
:1008A0006D5D12E180AE02D08B9A01D08A92A7C111
:1008B000E6FF07D0A4C1FBFFA3C1FAFF0101A251CB
:1008C000F96EF8DFE5521AD00F0ED8806E556D5DC7
:1008D0000AE180AE02D08B8A01D08A820A0EE66ECF
:1008E00035D8E5520BD00F0EE76E6D19E8AE02D089
:1008F000E73402D0E7506D5D01E36D6BE55200EE29
:100900001FF00C0EE80403E3E5CFEDFFFBD700EE8C
:1009100013F0140EE80403E3E5CFEDFFFBD7E5CFBA
:10092000FBFFE5CFFAFFE5CFF4FFE5CFF3FFE5CF1F
:10093000F5FFE5CFF8FFE5CFF7FFE5CFF6FFE5CF11
:10094000EAFFE5CFE9FFE5CFDAFF1100D9CFE6FFF7
:10095000E1CFD9FF3C0E89128A1280AC46D0FE0E40
:10096000DB50090A3CE0010A35E00F0A2FE0010ADA
:1009700028E0030A21E0010A1AE0070A13E0010A4D
:100980000CE0030A07E0010A01E02ED0C70E891629
:100990008A162AD0CF0E891627D0E70E8916CB0EDD
:1009A0008A1622D0C70E8916DB0E8A161DD0CF0EEE
:1009B0008916F30E8A1618D0D70E8916D30E8A160A
:1009C00013D0D70E8916C30E8A160ED0C70E8916FD
:1009D0008A960AD0C70E8916C30E8A1605D0C70E8E
:1009E0008916D30E8A1600D045D0FE0EDB50090AB8
:1009F0003CE0010A35E00F0A2FE0010A28E0030A73
:100A000021E0010A1AE0070A13E0010A0CE0030AD8
:100A100007E0010A01E02ED0C70E89168A162AD0F7
:100A2000CF0E891627D0D70E8916D30E8A1622D05C
:100A3000C70E8916DB0E8A161DD0CF0E8916EB0E57
:100A40008A1618D0E70E8916CB0E8A1613D0E70E39
:100A50008916C30E8A160ED0CF0E89168A160AD0B2
:100A6000C70E8916C30E8A1605D0C70E8916CB0E7F
:100A70008A1600D0E552E7CFD9FF1200D9CFE6FFA2
:100A8000E1CFD9FF3C0E89128A1280AC44D0FE0E11
:100A9000DB50090A3AE0010A33E00F0A2DE0010AAF
:100AA00026E0030A1FE0010A19E0070A13E0010A21
:100AB0000CE0030A07E0010A01E02CD0C70E8916FA
:100AC0008A1628D0E70E8A1625D0E70E8916CB0E97
:100AD0008A1620D08996C30E8A161CD0899AE30EF6
:100AE0008A1618D0D70E8916D30E8A1613D0C70EC1
:100AF0008916D30E8A160ED0899AC70E8A160AD086
:100B0000C70E8916C30E8A1605D0D70E8916C30ED6
:100B10008A1600D043D0FE0EDB50090A3AE0010AE3
:100B200033E00F0A2DE0010A26E0030A1FE0010A64
:100B300019E0070A13E0010A0CE0030A07E0010AC2
:100B400001E02CD0C70E89168A1628D0E70E8A1627
:100B500025D0D70E8916D30E8A1620D08996C30EBB
:100B60008A161CD08998E30E8A1618D0E70E8916CB
:100B7000CB0E8A1613D0C70E8916CB0E8A160ED04E
:100B8000E70E89168A160AD0C70E8916C30E8A1672
:100B900005D0E70E8916C30E8A1600D0E552E7CFBE
:100BA000D9FF1200D9CFE6FFE1CFD9FF3C0E891261
:100BB000FE0EDB500F0B040DF31C89163C0E8A123F
:100BC000FE0EDB50F00BE840E8403F0BE81C8A16B5
:080BD000E552E7CFD9FF120046
:080BD800006A0EAEF5EF05F016
:100BE0000D6C0E1EE86A0E22001E09AEFDEF05F028
:100BF000086C091EE86A0922001E97EC08F009BE7D
:100C00000DEF06F000AE000C086C091EE86A092220
:100C1000046C051EE86A0522000C00BE04EF06F015
:100C20000188FF0C006AE86A0EAE1FEF06F00B6C3D
:100C30000C1E0D1E0E1E0C220D220E22001E09AED1
:100C40002AEF06F0066C071E081E091E072208225E
:100C50000922001EC9EC07F009BE41EF06F000AE04
:100C6000000C066C071E081E091EE86A07220822EF
:100C70000922026C031E041E051E03220422052203
:100C8000000C00BE31EF06F00188FF0C09C013F024
:100C900008C012F007C011F007500C02F4CF05F0A5
:100CA000F3CF04F008500D02F4CF07F0F3CF06F0B5
:100CB0000C02F3500526F4500622E86A0722115070
:100CC0000D02F3500526F4500622E86A0722095067
:100CD0000C02F3500626F450072209500D02086A50
:100CE000E86A0822F3500726F450082211500E0239
:100CF000F3500626F4500722096AE86A08220922FE
:100D000012500E02F3500726F4500822E86A092216
:0E0D100013500E02F3500826F4500922000C76
:020D1E000000D3
:100D200000000000000000000000000000020000C1
:100D30008002000480023000820814824020920861
:100D400008964440B22108BA0845F25020FB041826
:100D5000FFA050FF04D4FF22F0FF01F6FF08F7FFC9
:100D600004FFFFA0FFFFA8FFFFE4FFFFF4FFFFF673
:100D7000FFFFFEFFFFFFFFFFFFFFFFFFFFFFFFFF84
:100D8000FFFFFFFFFFFFFFFFFFFFFFFFFFFFFFFF73
:100D9000FFFFFFD9FFFFD9FFFF81D9FF81D9FF8175
:100DA00081D98181D9818181818181818181818183
:100DB0008181818181818181818101818100818124
:100DC00000808100008100000100000000000000A0
:100DD00000000C0CEE0C0CEE0C0CEE0C0CEE0C0CE3
:100DE000EE0C0CEE0C0CEE0C0CEE00000000000003
:030DF00000000000
:0C0DF4000E0EF66E000EF76E000EF86E8C
:100E000001010900F5509D6F0900F5509E6F03E147
:100E10009D6701D03DD00900F550986F0900F5504D
:100E2000996F0900F5509A6F09000900F550E96EB5
:100E30000900F550EA6E090009000900F5509B6FA2
:100E40000900F5509C6F09000900F6CF9FF1F7CF1C
:100E5000A0F1F8CFA1F198C1F6FF99C1F7FF9AC1AF
:100E6000F8FF01019B5302E19C5307E00900F55094
:100E7000EE6E9B07F8E29C07F9D79FC1F6FFA0C171
:100E8000F7FFA1C1F8FF01019D07000E9E5BBFD7D0
:020E900012004E
:0E0E9200D9CFE6FFE1CFD9FF1E0E176E0D0E71
:100EA000186E000E196EFD0EDBCF1AF0FE0EDBCFB2
:100EB0001BF01C6A030E0C6E0D6A0E6A1AC007F056
:100EC0001BC008F01CC009F046EC06F004C01AF084
:100ED00005C01BF006C01CF017501A24146E1850E1
:100EE0001B20156E19501C20166EFC0EDBCF1DF05A
:100EF0001E6A1F6A1DAE02D01E681F6814501D2492
:100F0000F36E15501E20F46E16501F20F86EF4CFAD
:100F1000F7FFF3CFF6FF0800F55000D0E552E7CF1A
:040F2000D9FF1200E3
:0C0F2400D9CFE6FFDACFE6FFE1CFD9FF1E
:100F3000E2CFDAFFC26AC06AFC0EDB407F0B3C0BDB
:100F4000C26EFC0EDB38F00B300B146EFB0EDB5068
:100F50000F0B1410C16EFD0EDB50040DF350380B57
:100F6000156EFD0EDB380F0B070B146EFD0EDB50FC
:100F7000800B14101510C06EFC0EDBAE03D09E9CCF
:100F80009D8CF28CC280E552E5CFDAFFE7CFD9FF26
:020F900012004D
:0E0F9200056A046A036A026A200EE76ED890B0
:100FA0000636073608360936023603360436053665
:100FB0000B50025C0C5003580D5004580E5005584D
:100FC00009E30B50025E0C50035A0D50045A0E50A8
:0A0FD000055A062AE72EE4D71200A6
:060FDA00D9CFE6FFDACFDB
:100FE000E6FFE1CFD9FFE2CFDAFFE652E652010198
:100FF000A8919EB4A881BE50DF6E010EBFCFDBFF6B
:10100000DECF14F0DDCF15F014C0F3FF15C0F4FFF0
:10101000E552E552E552E5CFDAFFE7CFD9FF1200FE
:10102000D9CFE6FFDACFE6FFE1CFD9FFE2CFDAFF93
:10103000FD0EDB507E0BCD6EFD0EDBAC02D0CD8EF7
:1010400001D0CD9ECF6ACE6A9E90DBAE02D09D804D
:1010500001D09D90CD80E552E5CFDAFFE7CFD9FFF3
:0210600012007C
:0E106200D9CFE6FFDACFE6FFE1CFD9FFE2CF2C
:10107000DAFFE652E652FC0EDBCFDEFFDBCFDDFF10
:10108000010EDB50CF6EDF50CE6EE552E552E552D9
:0A109000E5CFDAFFE7CFD9FF120029
:06109A00D9CFE6FFDACF1A
:1010A000E6FFE1CFD9FFE2CFDAFFFD0EDB50FB0B0D
:1010B000CA6ECC6A9E92FD0EDBAE02D09D8201D03C
:1010C0009D92CA84E552E5CFDAFFE7CFD9FF12003F
:1010D000D9CFE6FFDACFE6FFE1CFD9FFE2CFDAFFE3
:1010E000FD0EDB500F0BBD6EFD0EDBAE02D09E94ED
:1010F0009D849484E552E5CFDAFFE7CFD9FF120053
:10110000D9CFE6FFDACFE6FFE1CFD9FFE2CFDAFFB2
:10111000C30EC214146EFD0EDB407F0B3C0B14108B
:0E112000C26EE552E5CFDAFFE7CFD9FF12002D
:02112E00056A50
:10113000046A100EE76ED890083609360436053674
:101140000D50045C0E50055805E30D50045E0E5022
:0A115000055A082AE72EF0D7120016
:06115A00000EF36E00EE32
:1011600000F0030E01D81200EA6002D0EE6AFCD74C
:0A117000F350E9601200EE6AFCD7AC
:06117A0012EE00F022EE6F
:1011800000F0F86A019CFAEC06F003EC00F00EECBB
:0611900000F0FBD7120085
:0A119600C450176E166AC3501610FD
:0811A000F36E17C0F4FF12000A
:0811A800C250020B01E0010E30
:0211B00012002B
:0411B200C2821200E3
:0A11B60020A10700E803D103A00503
:1011C000E803121E2B00000F8F1500148F15098FD6
:1011D00015008007C80A000AC80A84C70A0000056B
:1011E000640580076405C26305008002B202C00383
:1011F000B202E1B102008001590180025901E727E2
:10120000020040011401E001140186B9010000014F
:10121000DD008001DD00B6770600C0033C03A005B9
:101220003C0300000000000000000000000500007A
:10123000000000000000FFFF0000000000000000B0
:0E12400000000000020001000100000000009C
:020000040030CA
:0100010008F6
:0100020019E4
:010003001EDE
:0100050000FA
:010006008079
:010008000FE8
:01000900C036
:01000A000FE6
:01000B00E014
:01000C000FE4
:01000D0040B2
:00000001FF
